:100000000C946C090C94B3090C94B3090C94B309C7
:100010000C94B3090C94B3090C94B3090C94B30970
:100020000C94B3090C94B3090C94E32B0C941F2B80
:100030000C94341D0C94B3090C94B3090C94B309BB
:100040000C94B3090C94F0190C94B3090C94B309F3
:100050000C9481190C94F31C0C94B3090C94B309FF
:100060000C94B3090C94B3090C94B3090C94B30920
:100070000C94B3090C94B3090C94B3090C94B30910
:100080000C94B3090C94B3090C94B3090C94B30900
:100090000C94B3090C94B3090C94B3090C94B309F0
:1000A0000C94B3090C94B3090C94B309C80ADA0A86
:1000B000E80A110B430B8C0BBC0BBA0D190E1E0E6C
:1000C000230E280E2D0E320E370E3C0E410E460E1C
:1000D0004D0E500E530E560E590E5C0E5F0E620EF4
:1000E000670E010F010F3B0F3B0F8E0F31113111C6
:1000F0003111AA0F88109910991023201120342053
:100100006E1E132113210E201321132161201321B0
:100110007520F0201321132113211321A320132173
:100120001321902013214D20132113210C210C2188
:100130000C210C210C210C210C210C210C210E2155
:10014000132123200720132113211321132113210D
:10015000132113211321132113210E211321132104
:100160000E2013210A210A210A210A210A210A212B
:100170000A210A210A210E212D295429012B542953
:10018000012BA029C329012BC42AD32AB62DB62DB1
:10019000C92DC92DBF2DC92DC92DC92DB62DB62DDF
:1001A000C42DC92DC92DC42D6261636B6C6967684C
:1001B000742064656372656173653A2025750A0071
:1001C0006261636B6C6967687420696E63726561F4
:1001D00073653A2025750A006261636B6C69676814
:1001E000742064697361626C650A006261636B6CA0
:1001F0006967687420656E61626C650A006261639C
:100200006B6C6967687420746F67676C653A20254A
:10021000750A006261636B6C69676874207374654A
:10022000703A2025750A006261636B6C69676874B7
:1002300020627265617468696E67206469736162C7
:100240006C650A006261636B6C6967687420627236
:1002500065617468696E6720656E61626C650A002D
:100260006261636B6C69676874206272656174684F
:10027000696E6720746F67676C653A2025750A00A0
:100280007267626C696768742064697361626C6527
:10029000205B454550524F4D5D3A207267626C6954
:1002A0006768745F636F6E6669672E656E61626C06
:1002B00065203D2025750A007267626C6967687465
:1002C00020656E61626C65205B454550524F4D5D07
:1002D0003A207267626C696768745F636F6E666903
:1002E000672E656E61626C65203D2025750A00727F
:1002F00067626C6967687420746F67676C65205B00
:10030000454550524F4D5D3A207267626C6967688F
:10031000745F636F6E6669672E656E61626C6520DF
:100320003D2025750A0044454255473A20646973CB
:1003300061626C65642E0A0044454255473A206567
:100340006E61626C65642E0A0029001E001F002089
:100350000021002200230000004C002B0014001A92
:100360000008001500170000004B00E00004001614
:1003700000070009000A0000004E00E1001D001BFC
:100380000006001900050000000000E0000000E287
:100390000000002C00E300000031002E002D00279B
:1003A00000260025002400350030002F0013001225
:1003B000000C0018001C002A000000340033000F5D
:1003C000000E000D000B002800E500380037003655
:1003D000001000110005000151E4000000000002BF
:1003E0005800002C0000000000C15C3A003B003CBB
:1003F000003D003E003F000000C05CC35CC55CC621
:100400005CC75CC85CC95C0000C25C010001000103
:1004100000010001000100000001000100010001D5
:1004200000010001000100000000000100000001C7
:1004300000000001000100000001004500440043ED
:1004400000420041004000010001000100010001E4
:100450000001000100CA5C0100000052000100011F
:100460000001000100010001004F00510050000197
:100470000001000100010001000100000000000176
:1004800000000001000000000010501E021F0220AA
:1004900002210222022302000046002B0000004F2E
:1004A000014F011D03000000000000E0001050009B
:1004B0000000000000000000000000E10000004C0F
:1004C0000010501350500100000000E0000000E256
:1004D0000000002C00E300000031002E022D022756
:1004E0000226022502240229000000000019010052
:1004F0000010501D010601500000000000000051D6
:100500000052004F0050002800E5000901000000E3
:10051000000000000050010100E4000000000001A4
:100520000000002C00000000002900000000000076
:1005300000000000000000000000002B0000004F41
:10054000034F030000000000000000E0004D000029
:100550000000000000000000000000E10000002A90
:100560000000000000010000000000E0000000E2C8
:100570000000002C00E3000000000000000000006C
:10058000000000000000000000000000001903004F
:10059000004A00000006032A0000000000000000DE
:1005A000000000000000002800E50000004F095096
:1005B000090000000000000100E40000000000014C
:1005C0000000002C00000000004C25640A00726747
:1005D000626C696768745F636F6E6669672E7370BB
:1005E000656564203D2025640A007267626C696756
:1005F00068745F636F6E6669672E76616C203D205C
:1006000025640A007267626C696768745F636F6E65
:100610006669672E736174203D2025640A00726745
:10062000626C696768745F636F6E6669672E687570
:1006300065203D2025640A007267686C69676874EC
:100640005F636F6E6669672E6D6F6465203D202560
:10065000640A007267626C696768745F636F6E66D4
:1006600069672E656E61626C65203D2025640A0015
:100670007267626C696768745F636F6E6669672032
:10068000454550524F4D3A0A007267626C6967687F
:10069000745F696E6974207267626C696768745F01
:1006A000636F6E6669672E6D6F6465203D20302E26
:1006B0002057726974652064656661756C74207674
:1006C000616C75657320746F20454550524F4D2EF7
:1006D0000A007267626C696768745F696E6974208A
:1006E0006565636F6E666967206973206E6F74203D
:1006F000656E61626C65642E0A007267626C696780
:1007000068745F696E6974207374617274210A0081
:100710007267626C696768745F696E69742063618F
:100720006C6C65642E0A007267626C69676874207D
:1007300064697361626C65205B4E4F454550524F52
:100740004D5D3A207267626C696768745F636F6EB3
:100750006669672E656E61626C65203D2025750AAD
:10076000000A0025303862003A2000253032580057
:100770000A722F632030313233343536370A003273
:10078000190A00047F3F1F643214643214783C1E3F
:100790001E140A050A0025303258006B6579626F15
:1007A0006172645F7365745F6C65643A20005B73AB
:1007B0005D004B6579626F6172642073746172745D
:1007C0002E0A007267626C696768742074696D65CF
:1007D0007220656E61626C65642E0A007267626CDD
:1007E000696768742074696D6572206469736162F9
:1007F0006C652E0A002223252628292A2C2D2F302D
:1008000032333536383A3B3D3E4042434547494A0C
:100810004C4E5051535557595A5C5E60626466683D
:10082000696B6D6F71737577797B7D7F8183858748
:10083000898A8C8E90929496989A9C9E9FA1A3A54B
:10084000A7A8AAACAEAFB1B3B4B6B8B9BBBCBEBF73
:10085000C1C2C3C5C6C7C9CACBCCCDCED0D1D2D2F6
:10086000D3D4D5D6D7D7D8D9D9DADADBDBDBDCDC01
:10087000DCDCDCDDDDDDDDDCDCDCDCDCDBDBDBDAB9
:10088000DAD9D9D8D7D7D6D5D4D3D2D2D1D0CECD24
:10089000CCCBCAC9C7C6C5C3C2C1BFBEBCBBB9B831
:1008A000B6B4B3B1AFAEACAAA8A7A5A3A19F9E9CB6
:1008B0009A98969492908E8C8A89878583817F7D81
:1008C0007B79777573716F6D6B6968666462605E62
:1008D0005C5A5957555351504E4C4A49474543422B
:1008E000403E3D3B3A3836353332302F2D2C2A29C5
:1008F0002826252322000000000000000000000040
:1009000001010203040506080A0C0F1114181C202B
:1009100024292E33393F464C535B626A7179818AB0
:10092000929AA2AAB2B9C1C8CFD5DCE1E7EBF0F444
:10093000F7FAFCFDFEFFFEFDFCFAF7F4F0EBE7E151
:10094000DCD5CFC8C1B9B2AAA29A928A8179716A5C
:10095000625B534C463F39332E2924201C18141156
:100960000F0C0A0806050403020101000000000044
:1009700000000000000A002530325820006B657925
:10098000626F6172645F7265706F72743A200061A9
:1009900064645F6B65795F6269743A2063616E2796
:1009A00074206164643A20253032580A0064656C12
:1009B0005F6B65795F6269743A2063616E277420AA
:1009C00064656C3A20253032580A000A002575000B
:1009D0002E6C6576656C3A20000A002575002E6540
:1009E0006E61626C653A20000A0025303258006260
:1009F00061636B6C696768745F636F6E6669672EAD
:100A00007261773A20000A002575002E6E6B726FB6
:100A10003A20000A002575002E737761705F6261CD
:100A2000636B736C6173685F6261636B7370616346
:100A3000653A20000A002575002E737761705F67A4
:100A4000726176655F6573633A20000A0025750060
:100A50002E6E6F5F6775693A20000A002575002EBB
:100A6000737761705F72616C745F726775693A2049
:100A7000000A002575002E737761705F6C616C74DD
:100A80005F6C6775693A20000A002575002E737740
:100A900061705F7263746C5F726775693A20000AF7
:100AA000002575002E737761705F6C63746C5F6CEA
:100AB0006775693A20000A002575002E636170731E
:100AC0006C6F636B5F746F5F636F6E74726F6C3AA1
:100AD00020000A002575002E737761705F636F6ECA
:100AE00074726F6C5F636170736C6F636B3A20003C
:100AF0000A0025303258006B65796D61705F636F55
:100B00006E6669672E7261773A20000A00257500CB
:100B10002E6D6F7573653A20000A002575002E6BE7
:100B20006579626F6172643A20000A002575002EB3
:100B30006D61747269783A20000A002575002E658F
:100B40006E61626C653A20000A00253032580064FC
:100B5000656275675F636F6E6669672E7261773A6B
:100B600020000A0025750064656661756C745F6C11
:100B7000617965723A20000A092D204D6167696329
:100B8000202D0A443A094465627567204D657373E8
:100B900061676520546F67676C650A583A094D6153
:100BA00074726978204465627567204D6F646520B2
:100BB000546F67676C65202D2053686F77206B65D5
:100BC000797072657373657320696E206D617472DC
:100BD000697820677269640A4B3A094B6579626FDC
:100BE00061726420446562756720546F67676C6545
:100BF000202D2053686F77206B6579707265737351
:100C0000207265706F72740A4D3A094465627567A7
:100C1000204D6F75736520546F67676C650A563A8F
:100C20000956657273696F6E0A533A095374617499
:100C300075730A433A0941637469766174652043A8
:100C40006F6E736F6C65204D6F64650A46312D467B
:100C500031303A0953776974636820746F204C61AE
:100C600079657220302D392028463130203D204CC6
:100C700030290A302D393A09537769746368207432
:100C80006F204C6179657220302D390A47524156E8
:100C9000453A0953776974636820746F204C617911
:100CA000657220302028616C7465726E61746529EC
:100CB0000A423A094A756D7020746F20426F6F7452
:100CC0006C6F616465720A4553433A094A756D70E9
:100CD00020746F20426F6F746C6F6164657220289E
:100CE000616C7465726E617465290A453A095072C7
:100CF000696E7420454550524F4D20536574746998
:100D00006E67730A4253504143453A09436C65612B
:100D10007220454550524F4D0A4E3A094E4B524FA4
:100D200020546F67676C650A000A092D20436F6EB7
:100D3000736F6C65202D0A4553432F713A09717505
:100D400069740A004743433A20352E342E3020413F
:100D500056522D4C4942433A20322E302E302041FB
:100D600056525F415243483A20617672350A004F2D
:100D70005054494F4E533A204C5546412045585403
:100D800052414B455920434F4E534F4C4520434F02
:100D90004D4D414E44204E4B524F204C544F203429
:100DA0003039360A004255494C443A2022303064EA
:100DB00036326422202832303A35353A3038204FE6
:100DC00063742020342032303230290A00564944DE
:100DD0003A2030783534344228546865204B6579A0
:100DE00020436F6D70616E7929205049443A20305C
:100DF0007830303035284F534120763229205645FF
:100E0000523A203078303030310A000A092D20560D
:100E1000657273696F6E202D0A0074696D65725F6B
:100E200072656164333228293A202530346C580ABF
:100E3000006B65796D61705F636F6E6669672E6EBA
:100E40006B726F3A2025580A006B6579626F617288
:100E5000645F69646C653A2025580A006B657962A5
:100E60006F6172645F70726F746F636F6C3A20258C
:100E7000580A00686F73745F6B6579626F617264A2
:100E80005F6C65647328293A2025580A000A092DE9
:100E900020537461747573202D0A003F004E4B522D
:100EA0004F3A206F66660A004E4B524F3A206F6EE3
:100EB0000A000A6D6F7573653A206F66660A000A4C
:100EC0006D6F7573653A206F6E0A000A6B65796203
:100ED0006F6172643A206F66660A000A6B65796218
:100EE0006F6172643A206F6E0A000A6D61747269F4
:100EF000783A206F66660A000A6D61747269783A02
:100F0000206F6E0A000A64656275673A206F666634
:100F10000A000A64656275673A206F6E0A000A0A61
:100F20004A756D70696E6720746F20626F6F746CA4
:100F30006F616465722E2E2E2000433E2000436CAC
:100F4000656172696E6720454550524F4D0A0065D4
:100F500065636F6E6669673A0A000001010101016D
:100F60000101010102020202020202020203030362
:100F70000303030303040404040404040505050532
:100F800005060606060607070707070808080809F2
:100F90000909090A0A0A0B0B0B0C0C0C0D0D0D0E9E
:100FA0000E0E0F0F0F101011111112121313141433
:100FB000151516161717181819191A1A1B1B1C1DA8
:100FC0001D1E1E1F20202122222324242526262701
:100FD0002829292A2B2C2D2D2E2F30313232333433
:100FE00035363738393A3B3C3D3E3F404142434439
:100FF00045464748494A4C4D4E4F5051535455561B
:1010000058595A5B5D5E5F616264656668696B6CC6
:101010006D6F7072737577787A7B7D7E8082838541
:1010200087888A8C8E8F91939596989A9C9EA0A281
:10103000A3A5A7A9ABADAFB1B3B5B7BABCBEC0C28B
:10104000C4C6C9CBCDCFD1D4D6D8DBDDDFE2E4E74F
:10105000E9EBEEF0F3F5F8FAFDFF7267626C696791
:101060006874206D6F6465205B4E4F454550524F4C
:101070004D5D3A2025750A007267626C6967687475
:10108000206D6F6465205B454550524F4D5D3A20A1
:1010900025750A007267626C6967687420736574ED
:1010A00020687376205B4E4F454550524F4D5D3A58
:1010B0002025752C25752C25750A007267626C69D0
:1010C0006768742073657420687376205B454550AB
:1010D000524F4D5D3A2025752C25752C25750A003B
:1010E0007267626C69676874207261696E626F779B
:1010F00020736574206873763A2025642C25642C4F
:1011000025642C25750A00FFAA7F55400631FF098A
:1011100074A1010975150026FF009520750881024C
:101120000976150026FF00952075089102C005017B
:101130000980A101850319012AB700150126B7000E
:10114000950175108100C0050C0901A101850419E4
:10115000012AA002150126A002950175108100C088
:1011600005010906A1018505050719E029E7150014
:1011700025019508750181020507190029EF150061
:10118000250195F0750181020508190129059505CC
:1011900075019102950175039101C005010906A130
:1011A00001050719E029E71500250195087501815A
:1011B000029501750881010507190029FF15002610
:1011C000FF00950675088100050819012905950598
:1011D00075019102950175039101C05B435D005B50
:1011E000445D005B535D007267626C6967687420E0
:1011F000656E61626C65205B4E4F454550524F4DA8
:101200005D3A207267626C696768745F636F6E66CF
:1012100069672E656E61626C65203D2025750A0048
:101220005B575D005B525D0009025B00030100A09B
:10123000FA09040000010301010009211101000164
:101240002240000705810308000A09040100010388
:10125000000000092111010001226D000705820331
:1012600020000A0904020002030000000921110104
:101270000001222200070583032000010705030364
:1012800020000112011001000000084B540500016C
:1012900000010203010403300000000E034F00535D
:1012A0000041002000760032000000200354006856
:1012B00000650020004B0065007900200043006FAE
:1012C000006D00700061006E0079000000040309E9
:1012D000043F00433E20000011241FBECFEFDAE0A0
:1012E000DEBFCDBF04B603FE27C08091FA02909105
:1012F000FB02A091FC02B091FD028730904BA74009
:10130000B04BD1F41092FA021092FB021092FC0240
:101310001092FD0214BE84B7877F84BF0FB6F89485
:10132000A8958091600088618093600010926000B1
:101330000FBEE0E0F8E3099511E0A0E0B1E0ECE1D8
:10134000F4E602C005900D92AA39B107D9F722E060
:10135000AAE9B1E001C01D92AA3FB207E1F70E94DD
:101360004F130C940C320C940000FF93EF93E09118
:101370009A01F0919B01309709F00995EF91FF9147
:101380000895FC018591803011F0EFDFFBCF0895C7
:10139000FF27E0E230E247FF0CC0419597FF09C00C
:1013A000EDE26095709580959095611D711D811D90
:1013B000911D27FF02C0219530E350E2AA27660F56
:1013C000771F881F991FAA1FA41710F0A41B6395ED
:1013D0005A95A9F7AA3008F0A95FA05DAF93F395DD
:1013E000611571058105910541F7ED3211F4EF9317
:1013F000F395F21718F43F93F395FBCF8F91B5DF78
:10140000FA95E1F70895E991F9918591803021F0FD
:10141000853219F0AADFF9CF089520E0E8945591BC
:101420005532C1F3503311F4689455915A3348F44E
:10143000505390F3220F022E220F220F200D250F62
:10144000F4CF0EF4219589919991533619F35337BE
:1014500029F1533559F1BC0188279927E8945C3666
:1014600021F48991999168945591543639F446EF55
:101470007EF077FF0DC08FEF9FEF0AC055374AE02F
:1014800039F0583540E121F0523642E009F0089534
:10149000FF93EF937DDFEF91FF91B7CFFF93EF9332
:1014A000FC0181918030B9F360DFFBCFFF93EF93B4
:1014B00068DFF1CFDF93CF93CDB7DEB72596A3DFFB
:1014C000CF91DF9108958F929F92AF92BF92CF926A
:1014D000DF92EF92FF920F931F93CF93DF93CDB7DD
:1014E000DEB72A970FB6F894DEBF0FBECDBFFC0162
:1014F000D080118183819481892B39F01F3F39F489
:1015000091E00FEFD01203C003C091E001C090E062
:1015100090FDEAC67F0185E0DE01169601900D92EE
:101520008A95E1F7F70122818E819F81222349F07C
:101530000E94B821082F682F8E819F810E9431223E
:1015400003C00E940522082FE12FF0E01AE0019F5E
:10155000E00DF11D112443E0EE0FFF1F4A95E1F766
:10156000ED0DF11DEE0FFF1FE75BFC4F0591149190
:10157000F7019281992309F44FC1F801EB5BFC4517
:10158000E730F10508F048C1EA5AFF4F0C94EA3100
:1015900080919F018770886180939F01887F91E08F
:1015A00009F490E080919F0190FB80F980939F0166
:1015B00083E007C080919F0187708E7F80939F0199
:1015C00080E00E94461980919F010E94DC1DB2C3F9
:1015D00080919F01982F969596959695A1F0915E92
:1015E000990F990F990F8770892B80939F01887F9E
:1015F00091E009F490E080919F0190FB80F9809345
:101600009F010E94DC1D8091C40280FFE2C0809196
:101610009F018695869586951F928F9388EA91E023
:1016200029C020919F01822F869586958695482F07
:1016300050E04330510554F48F5F982F990F990F64
:10164000990F822F8770892B80939F0180919F0132
:10165000816080939F010E94DC1D8091C40280FF05
:10166000B8C080919F018695869586951F928F932D
:1016700080EC91E09F938F930E945A0A0F900F90F5
:101680000F900F90A6C010919F0111708091C4021D
:1016900080FF0CC01F921F938DEF91E09F938F935B
:1016A0000E945A0A0F900F900F900F9080919F0107
:1016B0001123B9F080FF3EC38E7F80939F010E946B
:1016C000DC1D8091C40280FF08C088ED91E09F93EB
:1016D0008F930E945A0A0F900F9080E00E94461943
:1016E00029C380FD27C3816080939F01813019F455
:1016F00089E080939F0180919F010E94DC1D809171
:10170000C40280FF66C08BEE91E09F938F930E948E
:101710005A0A0F900F905DC090919F01892F869576
:10172000869586958F5F8F719770843038F4880F17
:10173000880F880F892B80939F0102C090939F018F
:1017400080919F01887F91E009F490E080919F0152
:1017500090FB80F980939F010E94DC1D8091C40260
:1017600080FF37C080919F018695869586951F9250
:101770008F9383E192E07ECF10919F0116951170B7
:101780008091C40280FF0CC01F921F9380E692E0FC
:101790009F938F930E945A0A0F900F900F900F9073
:1017A00080919F011123D9F081FFC4C28D7F809366
:1017B0009F010E94DC1D8091C40280FF08C087E267
:1017C00092E09F938F930E945A0A0F900F9010926D
:1017D000A00180919F018695869586957FCF81FD9A
:1017E000A9C2826080939F010E94DC1D8091C40287
:1017F00080FF08C084E492E09F938F930E945A0A6E
:101800000F900F901092A3011092A2011092A101CB
:1018100081E08093A0018EC2033F2CE5120799F46A
:1018200006E221EE40EE63EF7CE509C0073DFCE5F2
:101830001F0711F506E221EE41EE67ED7CE5C701D9
:101840000E94CC1877C2043F3CE5130708F040C162
:10185000083D8CE5180731F407E225EE45EE68ED0A
:101860007CE5EDCF093DECE51E0701F708E221E03C
:1018700045EE69ED7CE5E3CF992309F45EC1109252
:101880009C010230FCE51F0708F441C106312CE53C
:10189000120738F098012A5F3C452930310508F0DD
:1018A00036C10E94E11D9093B3018093B2010031D3
:1018B0003CE5130709F4C3C008F041C008309CE5BB
:1018C000190709F49AC0F0F40430FCE51F0709F485
:1018D00087C068F402303CE5130709F477C0033091
:1018E0001C4509F0E5C08091B201826076C00630E7
:1018F0009CE5190709F46EC008F07BC08091B20125
:1019000088606BC00C30FCE51F0709F485C068F4E3
:101910000A303CE5130709F474C008F079C00E944E
:101920008A2F8091B201806858C00E309CE519075B
:1019300009F476C008F07FC08091B2018BC00B3FE4
:10194000FCE51F0709F44FC018F503313CE5130708
:1019500009F47DC078F401319CE5190709F473C0DE
:1019600002311C4509F0A4C00E948A2F8091B20167
:101970008F7733C00531FCE51F0709F472C008F406
:1019800086C00A3F1C4509F093C08091B3013EC058
:101990000F3F8CE5180709F45FC058F40D3FECE5E4
:1019A0001E0709F444C008F43FC08091B30182606F
:1019B0002DC001302DE5120709F475C008F45DC093
:1019C00002301D4509F074C060E06EC08091B20124
:1019D000816003C08091B20180618093B20168C0D0
:1019E0008091B20111C08091B30182608093B301F4
:1019F0005FC08091B2018062F0CF8091B2018064BB
:101A0000ECCF8091B20188608460E7CF8160EECF37
:101A10008091B2018E7FE1CF8091B2018D7FDDCFC9
:101A20008091B201877FD9CF8091B30118C0809196
:101A3000B3018D7FDBCF8091B2018F7ECECF8091BD
:101A4000B2018F7DCACF8091B2018F7BC6CF8091CA
:101A5000B201877F8B7FC1CF8091B3018D7F8E7F55
:101A6000C5CF8091B20182FB222720F991E0922715
:101A700090FB82F990FB83F9B0CF8091B301982F4E
:101A8000909591708E7F892B90FB81F9AFCF0E944A
:101A90008A2F8091B20187FB222720F991E09227BB
:101AA00090FB87F99ACF61E08EE090E00E940131CF
:101AB0006091B2011091B30184E090E00E94013185
:101AC000612F81E290E00E9401310E948A2F32C191
:101AD000053F2CE5120731F406E221EE42EE65EFF8
:101AE0007CE5ADCE053F3CE5130730F407E225EE7B
:101AF00044EE64EF7CE5A3CE063F8CE5180709F0C1
:101B0000BBCE07E225EE46EE66EF7CE598CE8091EF
:101B1000B3020631ECE51E0709F58A7A91E009F473
:101B200090E090939D01882311F065E301C069E284
:101B300086E292E00E94961D0EC006311C4509F017
:101B400018C180919D01882309F4CCC365E386E226
:101B500092E00E945D1D0E943421ECC08272F80167
:101B6000E25CFC45E431F10508F0B6C0E35AFF4FF2
:101B70000C94EA318091C40280FF10C08091C502AC
:101B8000809581701F928F938FEE92E09F938F9339
:101B90000E945A0A0F900F900F900F908091C502EB
:101BA00080FF2EC08E7F8093C5026091C502709128
:101BB000C6028091C7029091C8020E944023809182
:101BC000C40280FF0FC08091C50281701F928F9365
:101BD00080E892E09F938F930E945A0A0F900F9093
:101BE0000F900F900E94361A9FEFE0E7F2E09150BD
:101BF000E040F040E1F700C000000E94671A9AC080
:101C000081608093C5028091C40280FF0DC01F9245
:101C100081E08F9388EB92E09F938F930E945A0A02
:101C20000F900F900F900F908091C50261E0869504
:101C300050C048EB55E261EC75E22CC041EC55E236
:101C400068EB75E227C04CE455E265E575E222C019
:101C500045E555E26CE475E21DC044E355E260E4FD
:101C600075E218C040E455E264E375E213C04CE14C
:101C700055E268E275E20EC048E255E26CE175E2B9
:101C800009C042E553E263E673E204C043E653E26F
:101C900062E573E20E94301A4DC061E081E019C034
:101CA00065E082E011C068E086E00EC06EE089E089
:101CB0000BC064E18FE008C067E185E105C061E029
:101CC00088E107C062E289E10E941E1A33C061E028
:101CD00083E20E945E252EC001302CE51207A9F098
:101CE0000E3D3CE5130721F101151C4509F041C0EB
:101CF0000E948A2F9FEFE4E3FCE09150E040F04027
:101D0000E1F700C000000E94CF1C8091C402982F10
:101D10009095917090FB80F98093C402992319F0FB
:101D200088E393E002C086E293E00E94C10902C00A
:101D30000E94FD1D8091B002877009F4D5C2F701A1
:101D40008281882309F4D0C282E02A960FB6F894E3
:101D5000DEBF0FBECDBFDF91CF911F910F91FF90DE
:101D6000EF90DF90CF90BF90AF909F908F900C94AA
:101D70008B22F70100811181992349F0C8010E944B
:101D8000B821D82E682FC8010E94312204C0C80192
:101D90000E940522D82EB8018D2D0E946B268C0141
:101DA000982EF701A580A2943FE0A322D280D11003
:101DB0001092B2028091B002877099F0DD2089F014
:101DC000812F807F803421F080E2800F883048F0BE
:101DD00082E00E948B228091B0028770CC24C39451
:101DE0008111C12CB12EB2942FE0B2228B2D90E044
:101DF0008C30910508F035C2FC01EF58FF4F0C9470
:101E0000EA31812F807F1F70882311F01295107F97
:101E1000DD20B9F0112309F40FC280E2800F883071
:101E200010F0911006C08091B302182B1093B302EA
:101E300005C08091B202182B1093B2020E94342187
:101E4000FBC1802F0E94B42F112309F40AC2005E47
:101E50001095083010F0911006C08091B30218233D
:101E60001093B30205C08091B20218231093B202FE
:101E70000E943421F6C1812F807F1F70803211F0C3
:101E80001295107F992021F0F1E09F16E1F02AC011
:101E9000DD2081F08091B402AA2051F001E0A0126F
:101EA00007C0182B181709F4DCC11093B402D9C16C
:101EB000812B10C0AA2021F021E0A21609F4D1C183
:101EC0000E942E2127C0DD2041F035E03A1508F4AC
:101ED000C8C1812F0E94AA2FC4C184E08A1508F4CA
:101EE000C0C118C0DD2049F0AA2099F3F70185810F
:101EF00080FFA2C18F708583ECCFAA2059F00933EF
:101F000009F0ACC1FFEF17EE23E0F1501040204084
:101F1000E1F7A2C1812F0E949F2FA3C1812F869537
:101F20008695837019F0813059F09BC1DD2019F03E
:101F3000C801937002C080E090E00E94AA1899C185
:101F4000DD2019F0C801937002C080E090E00E948B
:101F500094188FC1812F837009F069C0D11085C199
:101F6000902F929596959770990F990F802F8F705B
:101F7000882E912CA12CB12C092E04C0880C991C00
:101F8000AA1CBB1C0A94D2F704FF12C04FE050E019
:101F900060E070E004C0440F551F661F771F9A95DC
:101FA000D2F7DB01CA0180959095A095B09503C04A
:101FB00080E090E0DC0116951695412F4370423089
:101FC00019F1C8F40091B5021091B6022091B70240
:101FD0003091B802413059F088299929AA29BB29A2
:101FE000BC01CD0160237123822393230AC0802A80
:101FF000912AA22AB32ABC01CD01682979298A290C
:102000009B290E94C52231C188299929AA29BB2967
:102010000091B5021091B6022091B7023091B8023A
:10202000BC01CD016027712782279327EACFDD20ED
:1020300019F0812F817001C08695882309F415C19C
:10204000902F929596959770990F990F802F8F707A
:10205000882E912CA12CB12C092E04C0880C991C1F
:10206000AA1CBB1C0A94D2F704FF12C04FE050E038
:1020700060E070E004C0440F551F661F771F9A95FB
:10208000D2F7DB01CA0180959095A095B09503C069
:1020900080E090E0DC0116951695412F43704230A8
:1020A000D9F068F50091AE011091AF012091B00117
:1020B0003091B101413059F088299929AA29BB29C9
:1020C000BC01CD0160237123822393231EC0802A8B
:1020D000912AA22AB32A13C088299929AA29BB299F
:1020E0000091AE011091AF012091B0013091B1018A
:1020F000BC01CD01602771278227932706C0BC0150
:10210000CD01682979298A299B290E945C22ADC0CA
:102110001F70DD2039F0812F0E94A422802F0E94A1
:10212000AA2FA3C0802F0E949F2F812F0E9466227A
:102130009CC0802F32EF931609F440C0391538F057
:1021400090EF991661F0E1EF9E1699F170C0F3EFF0
:102150009F16D9F124EF921609F44EC068C0DD2015
:1021600019F134E03A1508F47CC01F7181E090E069
:10217000A0E0B0E0AC01BD0104C0440F551F661FD4
:10218000771F1A95D2F78091AE019091AF01A0917F
:10219000B001B091B1018A019B01082719272A27B4
:1021A0003B27C901B80125C025E02A1508F459C00C
:1021B000DCCFDD2029F0812F8F712CC0DD20D9F3F9
:1021C000812F8F710E9466224CC0DD2079F01F7133
:1021D00081E090E0A0E0B0E0BC01CD0104C0660F5A
:1021E000771F881F991F1A95D2F703C060E070E02F
:1021F000CB010E945C2235C0DD2079F01F71812F58
:102200000E94A42238E0139FC001112483608093B0
:10221000B002812F0E94A42224C081E00E948B2260
:1022200081E08A15F0F482E00E948B221AC0DD2042
:1022300039F0AA2009F4BFCF802F0E94E62F11C0E9
:10224000AA2009F4BDCF893349F49FEFE7EEF3E00C
:102250009150E040F040E1F700C00000802F0E9464
:10226000B42F88EF8B0D843020F40E94C0180E9498
:102270000628CC20A9F08091B00280FD11C0F701A2
:1022800012828595859585950E94A422C7010E949A
:10229000630A8091B0028595859585950E94662296
:1022A00085E0F701DE01119601900D928A95E1F724
:1022B00089819A810E940522EA81F0E00AE0809FEC
:1022C000E00DF11D112483E0EE0FFF1F8A95E1F769
:1022D0008981E80FF11DEE0FFF1FE75BFC4F859131
:1022E000949102C069E233CC2A960FB6F894DEBF0F
:1022F0000FBECDBFDF91CF911F910F91FF90EF9057
:10230000DF90CF90BF90AF909F908F9008950895E9
:102310008091CD0208959FB7F8941092C1029FBF9B
:102320009091F002943009F057C09091E9009F70AD
:102330003091EC00232F217030FD20E8922B23E018
:102340002093E9002091EB0020FF43C02091EE0094
:1023500027FF3FC020919E01222321F02091E80019
:1023600025FF37C010929E0126E03091E80035FD30
:1023700015C03091F002343061F53091EB0035FD3D
:1023800028C0215021F481E080939E0122C0EFE912
:10239000FFE03197F1F700C00000E7CF8093F10034
:1023A0008091E80085FD0AC08091E80080FFFCCFA5
:1023B0008091E8008E778093E80006C08FB7F8948C
:1023C00021E02093C1028FBF9F709093E90080E0CD
:1023D00008959F709093E9008FEF0895CF93DF9356
:1023E00000D01F92CDB7DEB79091F002943019F56E
:1023F00089837B836A8382E08093E9008FEF9091E9
:10240000E800815095FD06C095ED9A95F1F7000022
:102410008111F5CF8091E80085FF0DC040E050E0CC
:1024200063E070E0CE0101960E941C288091E800D4
:102430008E778093E8000F900F900F90DF91CF91EF
:102440000895BC0184E00C94EE11BC0183E00C946F
:10245000EE11CF93DF9320911C01222339F02091BC
:10246000B20127FF03C060E222E002C068E021E081
:102470002093E9002FEF3091E800215035FD06C090
:1024800035ED3A95F1F700002111F5CF2091E800E4
:1024900025FF1DC0EC0180911C01811105C040E0A9
:1024A00050E068E070E003C070E040E050E0CE0132
:1024B0000E941C288091E8008E778093E80080E2DB
:1024C000FE01AEECB2E001900D928A95E1F7DF914A
:1024D000CF9108952091E4003091E50095E6409178
:1024E000EC00842F817040FF23C08091E80080FDC4
:1024F0001DC08091F002882399F0853099F0809179
:10250000EB0085FD11C04091E4005091E5002417D7
:10251000350729F3915011F09A01E1CF84E0089535
:1025200082E0089583E0089581E0089580E00895B1
:102530004091E80042FFDDCF08958091F20287FFCD
:1025400011C08091E80082FD05C08091F0028111E8
:10255000F8CF11C08091E8008B770BC08091F0021A
:10256000882349F08091E80080FFF8CF8091E8004F
:102570008E778093E8000895982F973068F59093B0
:10258000E900981739F07091EC002091ED0050911E
:10259000F00003C0242F762F50E021FD02C09F5F82
:1025A000ECCF3091EB003E7F3093EB003091ED00AB
:1025B0003D7F3093ED003091EB0031603093EB00C4
:1025C0007093EC002093ED005093F0002091EE000A
:1025D00027FDE5CF80E008958F708093E90081E0CA
:1025E00008952091F8023091F9022617370748F034
:1025F0006115710539F42091E8002E772093E800E9
:1026000001C0B901FC0120E06115710579F18091EB
:10261000F0028823F1F18530F1F18091E80083FD2B
:102620003CC08091E80082FD2EC08091E80080FFD0
:10263000EBCF2091F3008091F20090E0922B611596
:10264000710551F08830910538F421912093F10003
:10265000615071090196F3CF21E0089709F020E05D
:102660008091E8008E778093E800CECF2111CFCF04
:102670000AC08091F002882361F0853061F080917A
:10268000E80083FD0AC08091E80082FFF2CF80E07D
:10269000089582E0089583E0089581E00895CF933E
:1026A000DF93CDB7DEB72D970FB6F894DEBF0FBE20
:1026B000CDBF84B7877F84BF0FB6F894A89580916B
:1026C0006000886180936000109260000FBE90E00F
:1026D00080E80FB6F89480936100909361000FBE7C
:1026E00085B7806885BF85B7806885BF3F9A3E9A69
:1026F000269A0E94632B0E94822B8091E2008460C4
:102700008093E2008BE891E190939B0180939A0182
:1027100078948091F0028823A1F01091E9001F7055
:102720009091EC00892F817090FD80E8182B109219
:10273000E9008091E80083FD0E9448281F701093F3
:10274000E90082E084BD93E095BD9AEF97BD809348
:102750006E00ADE1B1E047E251E061E070E08D91E3
:10276000E82FE295EF70F0E021A18F708B0102C09D
:10277000000F111F8A95E2F7C801902F90959223C0
:1027800091A392A1892B82A34A175B0741F7A7E285
:10279000B1E04FE251E061E070E08D91E82FE29509
:1027A000EF70F0E021A18F708B0102C0000F111FAC
:1027B0008A95E2F7C801902F9095922391A392A158
:1027C000892B82A34A175B0741F7E4EAF1E08EEA1E
:1027D00091E0A8EBB1E011921D928E179F07D9F7F7
:1027E0000E94CB258FE39CE90197F1F700C0000020
:1027F0000E94CB258091B80180FF08C06FEF7FEF6A
:1028000080E090E00E941F310E94CF1C0E94F21DC8
:10281000811102C00E94FD1D569A5E9882E080934D
:10282000800089E1809381008FEF9FEF9093870074
:10283000809386000E94FB1980919F0181FF09C04F
:102840001092A3011092A2011092A10181E0809345
:10285000A0010E94F21D811102C00E94FD1D82E0B4
:1028600090E00E94ED308093C4020E94E11D90939D
:10287000B3018093B20183E090E00E94ED30682FB5
:1028800070E080E090E00E94C5220E94FB198091D8
:10289000B4018111DDC08091C40280FF08C080E1D5
:1028A00097E09F938F930E945A0A0F900F90809108
:1028B000C40280FF08C08AEF96E09F938F930E9426
:1028C0005A0A0F900F900E94F21D811110C0809142
:1028D000C40280FF08C082ED96E09F938F930E9410
:1028E0005A0A0F900F900E94FD1D0E94742388E0E9
:1028F00090E00E94F5306093C5027093C602809309
:10290000C7029093C8026E7FD1F48091C40280FF09
:1029100008C089E896E09F938F930E945A0A0F900F
:102920000F900E94742388E090E00E94F53060933D
:10293000C5027093C6028093C7029093C8020E949A
:102940002D238091C40280FF08C080E796E09F930A
:102950008F930E945A0A0F900F908091C40280FFBB
:102960000FC08091C50281701F928F9383E596E01E
:102970009F938F930E945A0A0F900F900F900F9081
:102980008091C40280FF0FC08091C50286951F927E
:102990008F9388E396E09F938F930E945A0A0F903B
:1029A0000F900F900F908091C40280FF0EC0809115
:1029B000C6021F928F938EE196E09F938F930E94A1
:1029C0005A0A0F900F900F900F908091C40280FFD1
:1029D0000EC08091C7021F928F9384E096E09F9370
:1029E0008F930E945A0A0F900F900F900F90809132
:1029F000C40280FF0EC08091C8021F928F938AEE9E
:102A000095E09F938F930E945A0A0F900F900F901A
:102A10000F908091C40280FF0EC08091C9021F9266
:102A20008F938EEC95E09F938F930E945A0A0F909C
:102A30000F900F900F901092C9018091C50280FFF6
:102A400004C060E086950E945E2581E08093B40119
:102A500084E091E09093B6018093B50182EB97E01A
:102A60000E94C1090BE6202E07E0302E83E6482E97
:102A700087E0582E96E9692E97E0792E8091F00232
:102A8000853009F074C08EEA97E00E94C1098091F8
:102A9000F002843009F459C01092B70120E488E1B3
:102AA00090E00FB6F894A895809360000FBE209335
:102AB000600080E00E94461980E00E9406280E9483
:102AC000361A8091CB02811129C081E08093CB021C
:102AD0008091C502982F91709093CA028E7F809347
:102AE000C5028091C40280FF0CC01F921F9287E232
:102AF00097E09F938F930E945A0A0F900F900F9028
:102B00000F900E94361A9FEFE0E7F2E09150E0400C
:102B1000F040E1F700C000000E94671A83B7817F90
:102B2000846083BF83B7816083BF7894889583B7BF
:102B30008E7F83BF0FB6F894A8958091600088615E
:102B400080936000109260000FBE8091EF02882396
:102B500009F494CF0E94CB2582EC91E0E8EBF1E000
:102B6000219121116EC18E179F07D1F787CF0E9447
:102B7000CB25BBECCB2EB1E0DB2E18EBA12E11E068
:102B8000B12E00E010E00D87F50121915F012C8747
:102B9000F60181916F0128272B87211116C00F5F45
:102BA0001F4F0A30110579F78FEF8E838F831886B8
:102BB0000E94281D8160782F9A8789874E815F81C6
:102BC00068858A850E94F8175BC08091C40281FDE8
:102BD00004C080E0FF24F39435C080E797E00E94B2
:102BE000C109A8EB8A2EA1E09A2EE12CF12CFF92CC
:102BF000EF923F922F920E945A0A88E697E00E9435
:102C0000C109F40181914F010E941C211F928F93F1
:102C10005F924F920E945A0A81E697E00E94C10992
:102C2000FFEFEF1AFF0A0FB6F894DEBF0FBECDBF5D
:102C30009AE0E916F104D9F6CCCF8F5FFF0C88300B
:102C400009F4ADCF9B859F21C1F38983ED85EA838C
:102C50009C859F2181E009F480E08B830E94281DE0
:102C60008160782F9D838C8349815A816B818D810E
:102C70000E94F817F801E553FE4F8081F826F08294
:102C80008091C901882309F4ACC08091C801E0910A
:102C9000C502E695E81BE093C401823059F4F0E0E8
:102CA000E057F84FE4910E2F10E0F4EEEF2EF7E12D
:102CB000FF2E6BC0863059F4F0E0E357F84FE491F3
:102CC0000E2F10E0E4EDEE2EE7E1FE2E5EC089301F
:102CD00061F4E695F0E0E657F84FE4910E2F10E02E
:102CE00075EAE72E7CE1F72E50C08F3061F4E6954F
:102CF000F0E0E957F84FE4910E2F10E068E3E62E7C
:102D00006CE1F62E42C0853159F4F0E0EC57F84FF3
:102D1000E4910E2F10E05AEEE52E5BE1F52E35C062
:102D20008831F9F0833249F4E2E8F7E00591149133
:102D300044E9E42E47E1F42E28C08432C9F08532FC
:102D4000F1F48E2F63E00E94A831E92FF0E0E15802
:102D5000F84FE4910E2F10E03DE9E32E3AE1F32E17
:102D600014C008E210E021E6E22E2BE1F22E0DC0A5
:102D700004EF11E097E2E92E9BE1F92E06C000ED89
:102D800017E083E9E82E87E1F82E8091C5018823BA
:102D900089F01092C5010E94281D98012095309558
:102DA000820F931F9093C3018093C2011092C701B9
:102DB0001092C6018091C2019091C3010E94191D19
:102DC0008017910770F0E091C201F091C3010E0FDE
:102DD0001F1F1093C3010093C20182EC91E0F70121
:102DE00009950E94C0189091CA01891709F446CE2E
:102DF0000E94C018182F8093CA018091C40282FFDC
:102E00001CC080FF04C08BE997E00E94C10980913B
:102E1000C40280FF0AC01F921F937F926F920E948C
:102E20005A0A0F900F900F900F908091C40280FF6C
:102E300004C084E997E00E94C109812F0E940628FE
:102E40001DCE80E189BD82E189BD09B400FEFDCFC0
:102E50008091D8008F7D8093D8008091E0008260BF
:102E60008093E0008091E00081FDFCCF07CECF93FE
:102E7000C82F1F928F9389EC95E09F938F930E94A8
:102E80005A0A81E090E0A0E0B0E0BC01CD0104C0AE
:102E9000660F771F881F991FCA95D2F70E94C52217
:102EA0000F900F900F900F90CF910C948A2FCF928C
:102EB000DF92EF92FF928C3724E1920728F469E0C9
:102EC00070E00E94C23129C0A0E0B0E08A50974D66
:102ED000AF4FBF4F6627782F892F9A2F25EF38E203
:102EE00041E050E00E94673169017A01CA01B901ED
:102EF0000E9498319B01AC01C701B6010E94983134
:102F0000BB27A92F982F872F009721E0A207B10593
:102F100011F0BC0102C06FEF7FEFCB01FF90EF908B
:102F2000DF90CF90089508950F931F93CF93DF9371
:102F300000D01F92CDB7DEB78C018091D7018111EF
:102F40000AC09E012F5F3F4F4FEF6FEF0E94832318
:102F50008A818093D701F8018481813051F028F073
:102F6000823061F44091D7010AC08091D70140E0DE
:102F700007C06091D70140E080E003C040E080E0FE
:102F800060E00E941C23F801848190E0019663E0D8
:102F900070E00E94D63184830F900F900F90DF91E4
:102FA000CF911F910F910895CF93DF93EC01E5EC42
:102FB000F2E0438162818C810E9419248C818F5FB1
:102FC0008C83DF91CF910895CF93DF93EC01EC8157
:102FD000F0E0EB50F84F4491E5ECF2E06281818142
:102FE0000E9419248C818F5F8C83DF91CF9108958B
:102FF0001F93CF93DF93CDB7DEB767970FB6F894E3
:10300000DEBF0FBECDBF4B8B5C8B6D8B7E8B8F8BF2
:1030100086E09E01235F3F4FD901E82F1D92EA957C
:10302000E9F795E0FE017396D90101900D929A950A
:10303000E1F7F901DE01179601900D928A95E1F70B
:10304000CE0107960E94CD2D81113EC086E0FE0183
:103050003796DE01119601900D928A95E1F7FF8176
:10306000E8856A857B856115710531F0EF3F31F4A4
:1030700081E0FF3F19F403C081E001C080E080FDE2
:1030800023C020914C0230E0C90101968770992736
:1030900040917D0250E08417950779F1F983EA8326
:1030A0007D836C8396E0929FD001939FB00D112495
:1030B000A35BBD4FFE01319601900D929A95E1F709
:1030C00080934C020E94CF2216E080917D02909165
:1030D0004C028917F9F0189FC0011124835B9D4FA2
:1030E0000E94CD2D8823B1F080917D0290E0019661
:1030F0008770992780937D02E8CF0E948A2F1092D3
:103100004C0210927D02E6E4F2E086E0DF011D92BF
:103110008A95E9F767960FB6F894DEBF0FBECDBF6C
:10312000DF91CF911F9108952091240230912502C3
:103130002817390771F09093250280932402E091BB
:10314000B501F091B601309721F00084F185E02DB2
:1031500009940895209122023091230228173907FB
:1031600071F09093230280932202E091B501F091D7
:10317000B601309721F00680F781E02D099408957B
:10318000E091B501F091B601309721F00190F08106
:10319000E02D099480E008950F931F93CF93DF9360
:1031A000C42FD22FFC0182818823C9F040939C0157
:1031B0000E94281D909321028093200280E28C0FB0
:1031C000883008F05EC0C77081E001C0880FCA95E2
:1031D000EAF7DF91CF911F910F910C94AA2F809164
:1031E0009C0148133EC080912002909121020E94D0
:1031F000191D883C9105A8F510E21D0FCD17B9F0F7
:1032000080E28C0F883040F4C77081E001C0880FE5
:10321000CA95EAF70E949F2F183048F481E09D2F4D
:10322000977001C0880F9A95EAF70E94AA2F802F05
:103230000E94E62F093349F4FFEF27EE83E0F150B7
:1032400020408040E1F700C00000802F0E94B42F92
:103250001830B8F4D77081E001C0880FDA95EAF72A
:103260000AC080E28C0F883060F4C77081E001C032
:10327000880FCA95EAF7DF91CF911F910F910C94B7
:103280009F2FDF91CF911F910F9108958430A0F46B
:10329000811113C02091880030918900232B51F0B7
:1032A00090916F009D7F90936F0090916F009E7F33
:1032B00090936F005E9811C083E020918800309158
:1032C0008900232B51F490916F00926090936F00CE
:1032D00090916F00916090936F00282F30E0AFEFD6
:1032E000BFEF0E94893123E030E040E050E00E94CF
:1032F0006731C9010E945717909389008093880015
:1033000008951F920F920FB60F9211242F933F939F
:103310004F935F936F937F938F939F93AF93BF93DD
:10332000EF93FF938091A001882309F440C080911E
:10333000A2019091A301019668EB75E00E94C23151
:103340009093A3018093A2016BE070E00E94C231D0
:103350006F778091A101823019F4603439F404C090
:10336000813021F46F3711F41092A001E62FF0E0C4
:10337000EB50F74FE49121E031E0E29FC001E39F81
:10338000900D112463E070E00E94C23180919F0192
:10339000869586958695282F269FC001279F900D9C
:1033A00011240E9457179093890080938800809180
:1033B0008800909189008130914008F05E9AFF91D9
:1033C000EF91BF91AF919F918F917F916F915F919D
:1033D0004F913F912F910F900FBE0F901F90189516
:1033E0001F920F920FB60F9211245E980F900FBE8E
:1033F0000F901F9018950E94F21D811102C00E942B
:10340000FD1D86E090E00E94ED3080939F01282F03
:1034100026952695269530E02430310524F08770D6
:10342000886180939F0180919F0180FF04C08695F1
:103430008695869501C080E00C9446199091C5024E
:1034400090FF04C09695981740F003C0811105C005
:1034500090E0961710F40C94C12561E00C945E2561
:10346000882311F0FA0101C0FB0109941092C901EF
:103470008091C40280FF08C08CED97E09F938F93EA
:103480000E945A0A0F900F9008956091C5026695A8
:1034900070E04BE050E08EE091E00E94FF31892B1C
:1034A00019F481E08093C9010E94281D9093C30103
:1034B0008093C2018091C40280FF08C083EC97E032
:1034C0009F938F930E945A0A0F900F9008958091B6
:1034D000C50280FF0AC0549A8BB18F7E9BB1906168
:1034E0002FB7F894E8EDF1E00BC0E8EDF1E01182C0
:1034F00010821282339631E0E33FF307C1F7EBCF3E
:1035000031E0E33FF30789F0319148E09BB90000D7
:1035100000C037FF8BB9330F000000C000C000C0EF
:103520008BB900C04A9591F7EBCF2FBF8FE594E0A0
:103530000197F1F700C0000008958F929F92AF921B
:10354000BF92CF92DF92EF92FF920F931F93CF9390
:10355000DF93FC01B280948081E08483C3EFD1E0EB
:1035600008ED11E08BE4A82E88248394EE24EA94DD
:10357000F12C2BE4C22ED12C911003C01B821A8295
:103580004AC02B81222311F121502B833C8133230C
:1035900019F09A2D921B01C0922F8091C802899F29
:1035A000C0011124B6010E94C2316A83211104C0F6
:1035B000332311F01C82AB8222E02B1560F1809145
:1035C000C60288838091C702898325C00E94DD30AE
:1035D0008230914004F582E08B1530F40E94DD309A
:1035E000B7010E94D63102C08091C602888322E0D2
:1035F0002B1558F40E94DD302091C7022695622FCA
:1036000070E00E94D631820F02C08091C702898388
:103610001A82AB828C8298014A81698188810E94DA
:10362000832325960D5F1F4F82E0C032D80709F033
:10363000A3CFDF91CF911F910F91FF90EF90DF907B
:10364000CF90BF90AF909F908F900C94671AEF929D
:10365000FF920F931F93CF93DF938C01C8EDD1E0BE
:10366000E12CF12CF8018481F4E0EF16F1041CF454
:10367000882339F002C0811104C09E014091C80224
:1036800002C09E0140E06091C7028091C6020E9484
:1036900083238FEFE81AF80A239699E0E916F104DC
:1036A00009F70E94671AF801848190E00196817001
:1036B00099278483DF91CF911F910F91FF90EF9015
:1036C00008958F929F92AF92BF92CF92DF92EF9226
:1036D000FF920F931F93CF93DF93EC014C81042F44
:1036E00010E09801D8010E9489319B01AC010E9431
:1036F00054316B017C01E0E2F0E0E01BF10BA5E549
:10370000B0E09B01AC010E9454314B015C019F0170
:10371000DF010E94F0319B01AC010E945F319B01EF
:10372000AC012C0D3D1D4E1D5F1DC501B4010E9455
:103730006731822FF22E99E2921728F093E0299FA9
:10374000900111240DC025E530E0281B3109C90185
:10375000880F991F280F391F37FF02C02F5F3F4F77
:1037600035952795122F109598EDC92E91E0D92EF9
:1037700000E085E5E82EEF1801FD02C08E2D01C0A6
:103780008F2D9601412F6091C7020E9483230F5F06
:1037900083E0C80ED11C093079F70E94671A8C812A
:1037A000811102C091E003C0803219F49FEF909321
:1037B0001B0190911B01890F8C83DF91CF911F9189
:1037C0000F91FF90EF90DF90CF90BF90AF909F90C0
:1037D0008F9008950F931F93CF93DF93C8EDD1E09F
:1037E000FE01118210821282339681E0E33FF807D6
:1037F000C1F700E010E08091D601082E000C990B73
:103800000817190794F080911A01082E000C990BE3
:103810008017910754F09E014091C8026091C70241
:103820008091C6020E94832303C0198218821A82E3
:103830000F5F1F4F239609301105E9F60E94671AA2
:10384000809119019091D601980F9093D601209103
:103850001A01280F20931A01121614F498301CF044
:10386000819580931901DF91CF911F910F91089558
:10387000BF92CF92DF92EF92FF920F931F93CF935D
:10388000DF93FC01828180FF03C0DD24DA9402C053
:10389000DD24D39408ED11E0C0E0D0E029E0B22EA1
:1038A000F80111821082128294E0E92EF12CC12CD1
:1038B0008091D5018C0D8A302CF06B2D0E94B43193
:1038C000892F02C087FD875F082E000C990BC8174F
:1038D000D90791F48091C8028E9DA0018F9D500D53
:1038E0001124559547955595479598016091C702C4
:1038F0008091C6020E948323CD0CF1E0EF1AF108FB
:10390000B9F621960D5F1F4FC930D10549F60E94C7
:10391000671A8091D50191E0D91206C0811102C0C9
:1039200088E007C0815005C090E00196BE010E946A
:10393000D6318093D501DF91CF911F910F91FF90E8
:10394000EF90DF90CF90BF900895EF92FF921F937A
:10395000CF93DF93EC0188EDE82E81E0F82E10E0A4
:103960008C8197014091C8026091C702810F0E942B
:103970008323145E83E0E80EF11C1C3F89F70E944C
:10398000671A9A818C8190FF02C08F5F01C08150BD
:103990008C83DF91CF911F91FF90EF90089581E08C
:1039A0008093E00080E28093D8001092C9008FE1FC
:1039B0009EE40197F1F700C0000087E090EBDC0186
:1039C0008093FA029093FB02A093FC02B093FD0255
:1039D0009CE088E10FB6F894A895809360000FBE34
:1039E00090936000FFCF78941F920F920FB60F92C2
:1039F00011248F939F93AF93BF938091B9029091BD
:103A0000BA02A091BB02B091BC020196A11DB11DEA
:103A10008093B9029093BA02A093BB02B093BC0208
:103A2000BF91AF919F918F910F900FBE0F901F90FC
:103A300018959C014FB7F8948091B9029091BA0201
:103A4000A091BB02B091BC024FBF821B930B0895A3
:103A50002FB7F8948091B9029091BA02A091BB025D
:103A6000B091BC022FBF08951F920F920FB60F9214
:103A700011248F939F93AF93BF938091B7018111CE
:103A800013C08091B9029091BA02A091BB02B0918B
:103A9000BC024196A11DB11D8093B9029093BA0258
:103AA000A093BB02B093BC02BF91AF919F918F9145
:103AB0000F900FBE0F901F90189520911C0122238C
:103AC00051F12091B20127FF26C0262F2695269579
:103AD00026952E3178F4FC01E20FF11D677081E02C
:103AE00090E001C0880F6A95EAF78095928189235A
:103AF000828308958091C40280FF17C01F926F9344
:103B00008DEA99E09F938F930E945A0A0F900F902D
:103B10000F900F900895FC0106962281621301C058
:103B200012823196E817F907C1F7089520911C0118
:103B3000222349F12091B20127FF25C0262F269587
:103B4000269526952E3170F4FC01E20FF11D677069
:103B500081E090E001C0880F6A95EAF79281892B95
:103B6000828308958091C40280FF25C01F926F93C5
:103B70008FE899E09F938F930E945A0A0F900F90BD
:103B80000F900F900895FC0132962FEF30E0419195
:103B9000641789F02F3F19F4411101C0232F3F5FB3
:103BA0003630A9F72F3F39F0FC01E20FF11D27FD58
:103BB000FA95628308950895682F86E090E00C944A
:103BC0000131CF9384E090E00E94ED30C82F81E274
:103BD00090E00E94ED302C2F30E0A901582BCA0153
:103BE000CF91089580E090E00E94FB3021E08C3E70
:103BF0009E4F09F020E0822F08956CEE7EEF80E06A
:103C000090E00E941F3160E082E090E00E9401316C
:103C100060E083E090E00E9401311092B5021092C2
:103C2000B6021092B7021092B80260E084E090E011
:103C30000E94013160E081E290E00E94013160E089
:103C400085E090E00E94013160E086E090E00E9413
:103C500001316FEF87E090E00E94013140E050E0D9
:103C6000BA0188E090E00E94133160E08DE090E0BE
:103C70000E94013140E050E0BA0188E190E00E94EA
:103C8000133160E087E190E00E94013140E050E0B4
:103C9000BA018CE190E00E94133160E080E290E094
:103CA0000E94013140E050E0BA018FE090E00E94B4
:103CB000133140E050E0BA0183E190E00C941331FD
:103CC000CF93DF93482F50E0FA013597EF33F1059A
:103CD00008F0A9C2E358FF4F0C94EA318FE49FE04B
:103CE0000E94C10987E69BE00E94C10983E090E041
:103CF0000E94ED301F928F9384E69BE09F938F93F9
:103D00000E945A0A82E69BE00E94C10982E090E08C
:103D10000E94ED30C82F8FE49BE00E94C1091F92E2
:103D2000CF938AE49BE09F938F930E945A0A88E482
:103D30009BE00E94C1098EE39BE00E94C1098C2F89
:103D400081701F928F938BE39BE09F938F930E94D0
:103D50005A0A89E39BE00E94C1098FE29BE00E941E
:103D6000C109C1FB882780F91F928F938CE29BE0E9
:103D70009F938F930E945A0A8AE29BE00E94C10996
:103D80008EE19BE00E94C109C2FB882780F91F9247
:103D90008F938BE19BE09F938F930E945A0A89E156
:103DA0009BE00E94C10980E19BE00E94C109C3FB26
:103DB000CC27C0F91F92CF938DE09BE09F938F9308
:103DC0000E945A0A8BE09BE00E94C1090E94E11DFB
:103DD000EC0187EF9AE00E94C109DF93CF9382EF55
:103DE0009AE09F938F930E945A0A80EF9AE00E9474
:103DF000C10987ED9AE00E94C1098C2F81701F9242
:103E00008F9384ED9AE09F938F930E945A0A8DB707
:103E10009EB780960FB6F8949EBF0FBE8DBF82ED01
:103E20009AE00E94C1098BEB9AE00E94C109C1FB94
:103E3000882780F91F928F9388EB9AE09F938F9346
:103E40000E945A0A86EB9AE00E94C10984EA9AE02D
:103E50000E94C1098D2F81701F928F9381EA9AE091
:103E60009F938F930E945A0A8FE99AE00E94C1099A
:103E70008DE89AE00E94C109D695D1701F92DF9318
:103E80008AE89AE09F938F930E945A0A88E89AE002
:103E90000E94C10986E79AE00E94C109C2FB8827F7
:103EA00080F91F928F9383E79AE09F938F930E94EC
:103EB0005A0A81E79AE00E94C1098FE59AE00E94C0
:103EC000C109C3FB882780F91F928F938CE59AE084
:103ED0009F938F930E945A0A8AE59AE00E94C10933
:103EE00080E59AE00E94C109C4FB882780F91F92EF
:103EF0008F938DE49AE09F938F930E945A0A8BE4EC
:103F00009AE00E94C10989E39AE00E94C109C5FBB9
:103F1000882780F91F928F9386E39AE09F938F936F
:103F20000E945A0A84E39AE00E94C10988E19AE05B
:103F30000E94C109C6FB882780F91F928F9385E1F3
:103F40009AE09F938F930E945A0A8DB79EB78096EE
:103F50000FB6F8949EBF0FBE8DBF83E19AE00E941A
:103F6000C1098BE09AE00E94C109C7FBCC27C0F9C8
:103F70001F92CF9388E09AE09F938F930E945A0AF2
:103F800086E09AE00E94C10986E090E00E94ED3050
:103F9000C82F8FEE99E00E94C1091F92CF938AEE3D
:103FA00099E09F938F930E945A0A88EE99E00E94AD
:103FB000C1098EED99E00E94C1098C2F81701F927A
:103FC0008F938BED99E09F938F930E945A0A89ED0E
:103FD00099E00E94C10980ED99E00E94C109C6954F
:103FE000C695C6951F92CF938DEC99E09F938F93C2
:103FF0000E945A0A8BEC99E00E94C1098DB79EB7C6
:1040000040960FB6F8949EBF0FBE8DBF0AC18EE3D7
:104010009FE00E94C1090E94FD1D03C187E79BE04C
:10402000F6C08091C402817F8E7F8093C40289E2B2
:104030009DE00E94C1098AE39FE00E94C10981E0DE
:104040008093BD02EEC08EE19FE00E94C1090E94F4
:104050008A2F9FEF24E38CE0915020408040E1F7CD
:1040600000C000000E94CF1C8091C402C82FC095E0
:10407000C170C0FB80F98093C402CC2319F082E1A7
:104080009FE0C0C085E09FE00E94C1098091C4020A
:10409000897F877F8093C402C4C09091C40291FB42
:1040A000CC27C0F981E0C827892FC0FB81F9809314
:1040B000C402CC2319F088EF9EE027C08AEE9EE070
:1040C000A6C09091C40292FBCC27C0F981E0C8271A
:1040D000892FC0FB82F98093C402CC2319F08BEDA9
:1040E0009EE013C08BEC9EE092C09091C40293FBC3
:1040F000CC27C0F981E0C827892FC0FB83F98093C2
:10410000C402CC2351F08FEB9EE00E94C109809144
:10411000C40281608093C4028BC082EB9EE077C0B2
:104120008BE09EE00E94C1098DEC9DE00E94C109D8
:1041300085EA9DE00E94C1098FE69DE00E94C109C9
:1041400084E49DE064C08DE89EE00E94C1090E9465
:10415000C0181F928F9383E79EE09F938F930E94D6
:104160005A0A80911C011F928F938CE59EE09F93C9
:104170008F930E945A0A8091CC021F928F9389E4F8
:104180009EE09F938F930E945A0A8091B20187FB11
:10419000882780F91F928F9381E39EE09F938F93EE
:1041A0000E945A0A2FB7F8948091B9029091BA02EE
:1041B000A091BB02B091BC022FBFBF93AF939F935E
:1041C0008F938AE19EE09F938F930E945A0A8DB746
:1041D0009EB746960FB6F8949EBF0FBE8DBF21C006
:1041E0000E948A2F9091B20197FBCC27C0F981E001
:1041F000C827892FC0FB87F98093B201CC2329F00F
:1042000088EA9EE00E94C10913C08DE99EE00E94E9
:10421000C10907C0895303C08D5101C080E00E94CD
:104220003717C1E005C08BE99EE00E94C109C0E0DC
:104230008C2FDF91CF9108958295982F937344E04E
:10424000949F900111248C7C86958695282B822F33
:104250008575880F2A7A2695822B08958091B4025D
:1042600081111092B4020895EF92FF920F931F9361
:10427000CF939091B3028091B202892B2091B10229
:10428000982F922B909326028091B4028823D9F024
:10429000892B8093260280911C01882331F0809124
:1042A000B20187FF02C08EE101C086E0E8E2F2E0E1
:1042B00090E0815028F021912223D9F39F5FF9CF1C
:1042C00091110E942E21E091B501F091B601309735
:1042D00009F448C080911C01882359F08091B201F3
:1042E00087FF07C0809126028093270285E0809394
:1042F00026020280F381E02D86E292E0099580910A
:10430000C40282FF2FC080FF04C08DE799E00E94A5
:10431000C10906E212E0C8E087E7E82E89E0F82E3E
:104320008091C40280FF0CC0F80180811F928F939E
:10433000FF92EF920E945A0A0F900F900F900F90E9
:10434000C1500F5F1F4FC111EBCF8091C40280FF9E
:1043500009C085E799E0CF911F910F91FF90EF90F1
:104360000C94C109CF911F910F91FF90EF90089588
:10437000BF92CF92DF92EF92FF920F931F93CF9352
:10438000DF938C01C090AE01D090AF01E090B001FE
:10439000F090B1018091B5029091B602A091B70260
:1043A000B091B802C82AD92AEA2AFB2ACFE1D0E084
:1043B000D701C6010C2E04C0B695A7959795879591
:1043C0000A94D2F780FD04C0219790F7B12C07C062
:1043D000BC2EB8018C2F0E946B260197A9F38B2D60
:1043E000DF91CF911F910F91FF90EF90DF90CF90D1
:1043F000BF900895CF93DF93EC010E94B821BE01D6
:104400000E946B26DF91CF91089528E0929F800D46
:104410001124682F669566956695982F977085E0AC
:10442000689FB001112440E050E080E0FB01E40F00
:10443000F51FE258FD4F208130E0092E02C036956D
:1044400027950A94E2F721703327042E01C0220F2A
:104450000A94EAF7822B4F5F5F4F4530510531F7E1
:10446000089528E0929F800D1124E82FE695E695A7
:10447000E695877051E001C0550F8A95EAF785E00F
:10448000E89FF0011124E258FD4F20E030E070E099
:104490004081CB01022E02C0969587950A94E2F7DF
:1044A0008170819584278523842781932F5F3F4FD7
:1044B0002530310569F708956093AE017093AF011F
:1044C0008093B0019093B1010C947C2F0F931F93B4
:1044D00041E050E060E070E004C0440F551F661FEB
:1044E000771F8A95D2F74095509560957095809189
:1044F000AE019091AF01A091B001B091B1018A01DC
:104500009B01082319232A233B23C901B8011F91CA
:104510000F910C945C222091B002809582238093AD
:10452000B002982F977079F430E0482F082E000CD5
:10453000550B2417350739F08595859585950E948B
:1045400066221092B00208950F931F9341E050E04D
:1045500060E070E004C0440F551F661F771F8A9506
:10456000D2F78091AE019091AF01A091B001B091CE
:10457000B1018A019B01082B192B2A2B3B2BC90166
:10458000B8011F910F910C945C226093B502709357
:10459000B6028093B7029093B8020C947C2F80915E
:1045A0007D0290914C02891719F08F5F8770FBCFC5
:1045B00008959091B20192FF0DC0282F28712830E4
:1045C00019F4877F846006C0282F2471243011F4E9
:1045D0008B7F886093FF0DC0282F2871283119F434
:1045E000877E846106C0282F2471243111F48B7ECC
:1045F00088612091B30120FF0DC0382F3871383009
:1046000019F4877F816006C0382F3171313011F481
:104610008E7F886021FF0DC0282F2871283119F462
:10462000877E816106C0282F2171213111F48E7E91
:10463000886194FD877E08959091C50290FF0CC01B
:10464000E8EDF1E0818360834283339691E0E33FBC
:10465000F907C1F70C94671A08958091C502282FB5
:10466000269530E02115310519F48170826005C06E
:104670002B32310524F0817084658093C502089542
:10468000CF92DF92EF92FF926B017C010E942D236B
:10469000B701A60188E090E0FF90EF90DF90CF9007
:1046A0000C9413318091C902882319F081508093B2
:1046B000C9026091C5027091C6028091C7029091B3
:1046C000C8020C9440238091C902833018F48F5F94
:1046D0008093C9026091C5027091C6028091C702A1
:1046E0009091C8020C944023E5ECF2E083E08083D3
:1046F00011828FEF82838383148260817181828132
:1047000093810C944023AF92BF92CF92DF92EF92AD
:10471000FF920F931F93CF93DF93E82EF62EE901BC
:10472000E42FF0E0611106C0E65AF04FE4914E2FFD
:104730002E2F71C0062F10E0E65AF04F4491F42F4F
:10474000C42ED12C26E0829FC00111242FEF30E02F
:10475000B9010E94C2315BEA5603C001579F900D18
:1047600011248E0D911D8E0D911D582F550F580F30
:10477000D901A01BB10BAC9DC001AD9D900DBC9D9E
:10478000900D1124E92FF59ED0011124AB2FBB27EA
:104790007901EA1AFB0AEC9CD001ED9CB00DFC9C5F
:1047A000B00D11245901A51AB108A09E7001A19E57
:1047B000F00CB09EF00C1124EF2CFF242E193F09B1
:1047C0002C9D80012D9D100D3C9D100D1124212F3D
:1047D0006230710591F048F461157105E1F06130C6
:1047E0007105B9F4242F4B2F16C06430710569F0A0
:1047F00040F06630710579F00CC0242F492FE12F6D
:104800000AC0492FEF2F2B2F06C0292FE42F412F4D
:1048100002C0292FEB2F49832883EA83DF91CF91B0
:104820001F910F91FF90EF90DF90CF90BF90AF90CE
:104830000895CF93DF9300D01F92CDB7DEB790914C
:10484000C50290FF0AC09E012F5F3F4F0E94832345
:104850004B8169818A810E941C230F900F900F90D9
:10486000DF91CF9108952F923F924F925F926F9276
:104870007F928F929F92AF92BF92CF92DF92EF92F0
:10488000FF920F931F93CF93DF9300D000D0CDB74B
:10489000DEB7182F462E542E222E9091C50290FF7F
:1048A000B4C0E92FE695AE2FB0E0A15DBE4F8C916C
:1048B0008093C8019E7F923061F49E012F5F3F4F2D
:1048C000812F0E9483234B8169818A810E941C234E
:1048D00062C0823019F45090C8025DC0863019F46D
:1048E0001091C60258C08930D9F3893109F053C0FC
:1048F000E9518E2F8170382E81E083258C83E695D7
:10490000F0E0E95FFE4EC590D49088EDA82E81E0DE
:10491000B82EE12CF12CDD2499E0692E712C20EECB
:10492000822E20E1922EEC9CC001ED9C900DFC9C0F
:10493000900D1124B3010E94C231012F311002C029
:10494000060F01C0061B8091C40280FF12C0DF92D7
:10495000CF921F929C819F931F920F93FF92EF9291
:104960009F928F920E945A0A0FB6F894DEBF0FBE34
:10497000CDBF9501452D642D802F0E9483239FEF8D
:10498000E91AF90A83E0A80EB11C99E0E916F104CE
:1049900051F60E94671A1093C6024092C7025092C5
:1049A000C8022220E9F06091C5027091C602809190
:1049B000C7029091C8020E9440238091C40280FFE8
:1049C00024C08091C8021F928F938091C7021F92CA
:1049D0008F938091C6021F928F938BEB90E10CC056
:1049E0008091C40280FF11C01F925F921F924F926C
:1049F0001F921F9384E990E19F938F930E945A0A1C
:104A00000FB6F894DEBF0FBECDBF0F900F900F9082
:104A10000F90DF91CF911F910F91FF90EF90DF905A
:104A2000CF90BF90AF909F908F907F906F905F904E
:104A30004F903F902F900895E5ECF2E0438121E103
:104A4000421B08F440E021E0628181810C94332410
:104A5000E5ECF2E0438121E1420F08F44FEF21E061
:104A6000628181810C943324E5ECF2E0628121E1E2
:104A7000621B08F460E021E0438181810C943324BF
:104A8000E5ECF2E0628121E1620F08F46FEF21E0D2
:104A9000438181810C943324E5ECF2E0818121E0B3
:104AA0004381628188500C943324E5ECF2E08181EB
:104AB00021E043816281885F0C9433249091C50288
:104AC00090FF55C09170811102C0926006C08B3278
:104AD00010F0946502C0880F982B9093C50266234E
:104AE000B1F06091C5027091C6028091C7029091A9
:104AF000C8020E9440238091C40280FF1BC08091A5
:104B0000C50286951F928F9388E790E10BC0809134
:104B1000C40280FF0FC08091C50286951F928F93BB
:104B20008AE590E19F938F930E945A0A0F900F900D
:104B30000F900F906091C502669570E04BE050E0D9
:104B40008EE091E00E94FF31892B19F00E94361A05
:104B500002C00E94451A81E08093C50120E0409187
:104B6000C8026091C7028091C6020C943324089554
:104B70008091C5028695815009F48AE261E00C9427
:104B80005E258091C50286958F5F8B3208F081E0AB
:104B900061E00C945E258F929F92AF92BF92CF926C
:104BA000DF92EF92FF920F931F93CF93DF932DE14C
:104BB000E22E21E0F22E34EA832E31E0932ED4014E
:104BC00010E0CC24C394D12CE70189917E01E82F19
:104BD000E295EF70F0E021A18F70A60102C0440FB2
:104BE000551F8A95E2F7CA01242B21A322A1342F55
:104BF0003095232322A350EA5A95F1F797E2A92E84
:104C000091E0B92E60E070E020E0E50109915E01DD
:104C1000402F42954F7050E0EA0148A150E00F70DC
:104C200002C0559547950A95E2F740FD07C04C2D07
:104C3000062E01C0440F0A94EAF701C040E0242B7D
:104C40006F5F7F4F6830710501F791A1392331A360
:104C500092A1892B82A38C91281719F02C9381E0C3
:104C600001C080E0182B1196D1E0AE3ABD0709F0E3
:104C7000ABCF112349F081E08093C0020E94281D30
:104C80009093BF028093BE028091C0028823A9F056
:104C90008091BE029091BF020E94191D069768F094
:104CA000E8EBF1E0D4018D914D018193BEEA8B16C2
:104CB000B1E09B06B9F71092C002812FDF91CF912E
:104CC0001F910F91FF90EF90DF90CF90BF90AF902A
:104CD0009F908F900895CF93DF93E72FF0E02AE025
:104CE000829FE00DF11D1124B3E0EE0FFF1FBA9576
:104CF000E1F7E60FF11DEE0FFF1FE75BFC4FC591DB
:104D0000D491CE01C238D10569F1B0F4C133D105D7
:104D100009F475C048F4C932D10509F469C0CA3232
:104D2000D10509F473C085C0C533D10509F459C054
:104D3000C933D105B9F07DC0C33ED10571F138F456
:104D4000C03ED105B1F0C23ED10511F172C0C63EE0
:104D5000D105B9F1C73ED105C9F1C43ED10509F06D
:104D600068C024C02091B20120FD5DC021FD5BC060
:104D700060C02091B20120FD50C02091B30120FFFE
:104D800042C18091B20184FD3CC183EE90E03BC101
:104D90002091B20122FF37C1F4CF8091B20182FD90
:104DA0003FC08091B30180FD3EC0EBCF2091B301A5
:104DB00021FF29C18091B20184FD23C187EE90E0DB
:104DC00022C12091B20123FF1EC1F4CF8091B20114
:104DD00083FD2CC08091B30181FFECCF84EE90E085
:104DE00012C12091B20125FF0EC189E290E00BC1F2
:104DF0002091B20125FF07C185E390E004C1209115
:104E0000B20126FF00C18AE290E0FDC02091B2010C
:104E100026FFF9C081E390E0F6C089E390E0F3C09B
:104E200082EE90E0F0C080EE90E0EDC086EE90E083
:104E3000EAC0C11552E5D50708F06BC0C11521E5E0
:104E4000D20728F09C2F8827816F906ADCC0C83E6B
:104E5000D10570F5C03ED10508F0D5C0C83AD105DE
:104E6000B8F4C53AD10550F08C2F855AC82FD0E040
:104E7000C759DE4F888190E09064C5C0C130D1052C
:104E800009F4C1C008F4BDC0249708F4BAC0BBC07F
:104E9000CF3BD10508F0B5C08C2F885AC82FD0E081
:104EA000CC0FDD1FC459DE4F888199819464ABC05B
:104EB000C11540E5D407F0F0CE01F4E09695879552
:104EC000FA95E1F7282F23703C2F337081E090E0B2
:104ED00002C0880F991F3A95E2F79C68922B2C2FFD
:104EE0002F702695269540E2249F90011124822B55
:104EF000932B89C0C11550E4D50720F0CE019F70D7
:104F0000906A81C09E013A9521153F4108F47BC00B
:104F100078C0C11556E5D50708F03FC0C11585E535
:104F2000D80748F08C2F0E94D9228F7190E0982FDB
:104F30008827906268C0C11594E5D90728F09C2F96
:104F40008827846F906A5FC09E01237033279C2F4F
:104F500096959695C115D34580F441E050E002C086
:104F6000440F551F2A95E2F780E2989F9001112483
:104F7000CA01822B932B9C6846C041E050E002C0DE
:104F8000440F551F2A95E2F780E2989F9001112463
:104F9000CA01822B932B9A6836C0C1155AE5D507F2
:104FA000B0F4C11589E5D80718F18C2F8F700E94D5
:104FB000D9229E0194E0369527959A95E1F72F70B6
:104FC00030E0322F22273069A901482B0FC0CE01D3
:104FD000905681159042A8F48D2F8F710E94D9228E
:104FE0009E01332730628F71A901582BCA010BC073
:104FF000C11598E5D90728F09C2F8827806F906A03
:1050000002C080E090E0DF91CF91089581FB2227DC
:1050100020F982FB992790F980FF02C0479A01C0CE
:105020004798222311F0469A01C04698992311F01F
:105030002E9A08952E980895EF92FF920F931F9342
:10504000CF93DF937C018B010E946A12811119C0FA
:10505000E70101151105A1F08091E80085FD0AC066
:105060008091E8008E778093E8000E946A1288237E
:1050700081F307C089918093F10001501109E9CFB4
:1050800080E0DF91CF911F910F91FF90EF900895F5
:105090001F93CF93DF93CDB7DEB7AA970FB6F894DF
:1050A000DEBF0FBECDBFE2EFF2E08AEF92E02091CB
:1050B000F10021938E179F07D1F78091F30283307F
:1050C00009F460C030F4813071F0823009F49AC084
:1050D000B1C08A3009F486C08B3009F46BC08930C6
:1050E00009F0A8C020C08091F202813A09F0A2C064
:1050F0008091E800877F8093E8008091F60290918C
:10510000F702892B21F460E28EEC92E003C060E0AC
:1051100080E090E070E00E94F1128091E8008B77CF
:105120008093E80087C08091F202813209F082C04A
:105130008091F6029091F702029708F07BC080916F
:10514000E800877F8093E8008091E80082FD05C039
:105150008091F0028111F8CF6DC02091F300809111
:10516000F20090E0922B029729F48091F1008B7F5E
:10517000813021F48091F1008093CD028091E8008C
:105180008B7754C08091F202813A09F053C080912C
:10519000F6029091F702892B09F04CC08091E8004B
:1051A000877F8093E8008091E80080FFFCCF8091AA
:1051B0001C0137C08091F2028132E1F58091F60244
:1051C0009091F702892BB1F58091E800877F809359
:1051D000E8000E949D128091F40280931C010E94BD
:1051E0008A2F28C08091F202813221F58091E80057
:1051F000877F8093E8000E949D128091F502809342
:10520000CC0218C08091F202813AA1F48091E800AA
:10521000877F8093E8008091E80080FFFCCF809139
:10522000CC028093F1008091E8008E778093E800B3
:105230000E949D128091E80083FFE3C18091F202F9
:105240009091F302492F50E04A30510508F0D9C13E
:10525000FA01E454FF4F0C94EA31803821F082388F
:1052600009F0CFC108C08091EE029091EF0299231E
:1052700089F082600FC08091F6028F70873008F04D
:10528000C0C18093E9008091EB0085FB882780F9FD
:105290001092E9009091E800977F9093E800809346
:1052A000F1001092F1007BC1282F2D7F09F0A9C1D8
:1052B000882319F0823061F0A4C18091F40281301A
:1052C00009F09FC1933009F080E08093EF022EC077
:1052D0008091F40281112AC08091F6028F702FEF25
:1052E000280F263008F08DC18093E9002091EB0053
:1052F00020FF1CC0933021F48091EB00806214C029
:105300009091EB0090619093EB0021E030E0A901D7
:1053100002C0440F551F8A95E2F74093EA001092AD
:10532000EA008091EB0088608093EB001092E90026
:105330008091E800877F8093E8000E949D1261C100
:1053400081115FC11091F4021F778091E300807892
:10535000812B8093E3008091E800877F8093E800B1
:105360000E949D128091E80080FFFCCF8091E300B5
:1053700080688093E300111102C082E001C083E0E5
:105380008093F0023EC18058823008F03AC12091EB
:10539000F4023091F5022C3D53E0350779F583E0B6
:1053A0008A838AE289834FB7F894DE01139620E05E
:1053B0003EE051E2E32FF0E050935700E49120FFEC
:1053C00003C0E295EF703F5FEF708E2F90E0EA3000
:1053D00010F0C79601C0C0968D939D932F5F243126
:1053E00049F74FBF8091E800877F8093E8006AE229
:1053F00070E0CE0101960E94F112C0C08091F602C9
:105400009091F702432F552743305105B1F068F4CE
:105410004130510509F404C14230510509F0F1C091
:105420008BE590E0E8E2F2E157C04132510589F1A5
:105430004232510509F43CC0E4C0C90199278130CA
:105440009105B9F070F082309105D9F0039709F019
:10545000D8C0E5E9F2E1E4918E2F90E0E5E9F2E1D0
:1054600038C0EDECF2E1E4918E2F90E0EDECF2E14A
:1054700030C0EBEAF2E1E4918E2F90E0EBEAF2E14A
:1054800028C0EBE9F2E1E4918E2F90E0EBE9F2E144
:1054900020C08330910508F0B4C0880F991FFC012B
:1054A000ED59FE4F0190F081E02D89E090E014C0AD
:1054B0008330910508F0A5C0FC01EE0FFF1FE35AF1
:1054C000FE4F0190F081E02DDC01A65ABE4F8C9179
:1054D00090E0009709F495C02091E800277F209381
:1054E000E8002091F8023091F9022817390708F4F2
:1054F000C90140E0009789F12091F002222309F4CC
:105500003DC02530D9F12091E80023FD37C020911E
:10551000E80022FD2FC02091E80020FFEBCF409152
:10552000F3002091F20030E0342B009759F028303E
:10553000310540F444914093F100319601972F5F7B
:105540003F4FF3CF41E02830310509F040E0209192
:10555000E8002E772093E800CDCF4111CDCF0AC0CF
:105560008091F002882351F0853041F08091E8006D
:1055700083FD04C08091E80082FFF2CF8091E800B3
:105580008B778093E8003DC08038D9F58091E800A2
:10559000877F8093E8008091F1028093F1008091F1
:1055A000E8008E77C8CE81112CC08091F4029091D2
:1055B000F502992702972CF58091E800877F809368
:1055C000E8001091F4021093F1020E949D12111153
:1055D00006C08091E30087FD02C081E001C084E045
:1055E0008093F00242E061EC81E00E94BC1242E252
:1055F00061EC82E00E94BC1242E261EC83E00E9416
:10560000BC128091E80083FF10C08091E800877F82
:105610008093E8008091EB0080628093EB0005C0EE
:1056200082E190E0E3E8F2E157CFAA960FB6F89452
:10563000DEBF0FBECDBFDF91CF911F9108951F92A6
:105640000F920FB60F9211242F933F934F935F93B6
:105650006F937F938F939F93AF93BF93CF93DF937A
:10566000EF93FF93C091E900CF708091EC00D82FA9
:10567000D17080FDD0E81092E9008091F000877F22
:105680008093F00078940E9448281092E90080915D
:10569000F00088608093F000CD2BCF70C093E900BC
:1056A000FF91EF91DF91CF91BF91AF919F918F913A
:1056B0007F916F915F914F913F912F910F900FBE0E
:1056C0000F901F901895E8EDF0E080818E7F808329
:1056D0001092E2001092DA001092E100A0EEB0E029
:1056E0008C9181608C9380818F77808319BCA7ED2A
:1056F000B0E08C918E7F8C9380818F7E808310921E
:10570000C3020895CF92DF92EF92FF920F931F93FF
:10571000CF93DF93C8EDD0E088818F7E8883E7ED5B
:10572000F0E080818160808384E082BF81E08093AB
:10573000C30288818E7F888302EE10E0F801108218
:105740001092DA0081EEC82ED12CF60110828881E9
:105750008F77888388818068888388818F7D88831C
:1057600019BC1092F0021092F1021092EF02109206
:10577000EE0290EEE92EF12CF70180818B7F808381
:1057800088818160888342E060E080E00E94BC12F2
:10579000F60180818E7F8083F80180818160808323
:1057A000808188608083F70180818E7F80838881FB
:1057B00080618883DF91CF911F910F91FF90EF90CF
:1057C000DF90CF9008951F920F920FB60F92112481
:1057D0002F933F934F935F936F937F938F939F93F9
:1057E000AF93BF93EF93FF938091E10082FF49C095
:1057F0008091E20082FF45C08091E1008B7F809321
:10580000E1002091C2022F5F822F62E30E94A83143
:10581000992319F02093C20234C01092C2028091E1
:10582000C102882371F18091F002843041F58091AA
:10583000E9008F702091EC00922F917020FD90E88C
:10584000892B93E09093E9009091EB0090FF14C0B6
:105850009091EE0097FF10C09091E80095FF03C073
:105860001092F100F9CF9091E80090FF05C090915F
:10587000E8009E779093E8008F708093E900109283
:10588000C1028091DA0080FF32C08091D80080FF91
:105890002EC08091DA008E7F8093DA008091D9004B
:1058A00080FF1CC080E189BD82E189BD09B400FE92
:1058B000FDCF81E08093F0028BED91E10E94C10960
:1058C0008091C302811113C00E94632B0E94822B1E
:1058D0008091E20084608093E20009C019BC1092BC
:1058E000F0028FED91E10E94C1091092C3028091F4
:1058F000E10080FF1BC08091E20080FF17C0809113
:10590000E2008E7F8093E2008091E20080618093CC
:10591000E2008091D80080628093D80019BC85E0B5
:105920008093F00283EE91E10E94C1098091E10031
:1059300084FF5EC08091E20084FF5AC080E189BD8F
:1059400082E189BD09B400FEFDCF8091D8008F7D32
:105950008093D8008091E1008F7E8093E100809158
:10596000E2008F7E8093E2008091E200816080936C
:10597000E2008091F102882311F084E007C0809159
:10598000E30087FD02C081E001C083E08093F00264
:1059900080E292E10E94C1090E948A2F0E94FB19B5
:1059A0000E94C0180E9406281092CB028091CA0261
:1059B0008823E1F08091C50281608093C5028091C7
:1059C000C40280FF0DC01F9281E08F9387EE91E1AA
:1059D0009F938F930E945A0A0F900F900F900F90F1
:1059E0008091C50260E086950E945E250E94451A5E
:1059F0008091E10083FF2BC08091E20083FF27C0EC
:105A00008091E100877F8093E10082E08093F00243
:105A10001092F1028091E1008E7F8093E1008091ED
:105A2000E2008E7F8093E2008091E20080618093AB
:105A3000E20042E060E080E00E94BC128091F00051
:105A400088608093F00084E292E10E94C109FF9196
:105A5000EF91BF91AF919F918F917F916F915F91E6
:105A60004F913F912F910F900FBE0F901F9018955F
:105A70000F931F93CF93DF9380914B0282958F708A
:105A800009F05DC080914802882309F458C08091D4
:105A90007D0210914C026091460270914702C091C4
:105AA0004902D0914A0291E06F3F09F090E0292F1E
:105AB00006E0811709F443C0209721F07F3F21F0D1
:105AC00030E003C031E001C0322F90E030FD34C03F
:105AD000089FF001099FF00D1124DF01A35BBD4F6A
